:020000040800F2
:1000000090830024B1020008F15B0008DB5900086E
:10001000ED5B00083F080008A56C00080000000028
:10002000000000000000000000000000C15E0008A9
:10003000E10D000800000000F55B0008C35E000849
:10004000CF020008CF020008CF020008CF0200084C
:10005000CF020008CF020008CF020008CF0200083C
:10006000CF020008CF020008CF02000845080008B0
:100070005508000865080008CF020008CF020008F4
:10008000CF020008CF020008CF020008CF0200080C
:10009000CF020008CF020008CF020008CF020008FC
:1000A000CF020008CF020008CF020008CF020008EC
:1000B000CF020008CF020008CF020008CF020008DC
:1000C000CF020008CF020008CF020008CF020008CC
:1000D000CF020008956C0008CF020008CF0200088C
:1000E000CF020008CF02000800000000CF02000885
:1000F000CF020008CF020008CF020008CF0200089C
:10010000CF020008CF020008CF020008CF0200088B
:10011000CF020008CF020008CF020008CF0200087B
:10012000CF020008CF020008CF020008CF0200086B
:10013000CF020008CF020008CF020008CF0200085B
:1001400000000000000000000000000000000000AF
:10015000CF020008CF020008CF020008CF0200083B
:10016000CF020008CF020008CF020008CF0200082B
:10017000CF020008CF020008CF02000800000000F4
:10018000CF020008CF020008C5600008CF020008B7
:10019000CF020008CF020008CF020008CF020008FB
:1001A000CF020008CF020008CF020008CF020008EB
:1001B000CF020008CF020008CF020008CF020008DB
:1001C000CF020008CF020008CF020008CF020008CB
:1001D000CF020008CF020008CF020008CF020008BB
:1001E000CF020008CF020008CF020008CF020008AB
:1001F000CF020008CF020008CF020008CF0200089B
:10020000CF020008CF020008CF020008CF0200088A
:10021000CF020008CF020008CF020008CF0200087A
:10022000CF020008CF020008CF0200080000000043
:10023000CF020008CF02000800000000CF02000833
:10024000CF020008CF020008CF020008CF0200084A
:10025000CF020008CF020008CF020008CF0200083A
:10026000CF020008CF020008CF020008CF0200082A
:10027000CF020008CF020008CF02000800000000F3
:10028000CF020008CF020008CF02000800000000E3
:1002900000000000CF020008DFF810D000F04EFA96
:1002A00000480047AD7B0008AFF300809083002436
:1002B000074880470748804707480047FEE7FEE7B2
:1002C000FEE7FEE7FEE7FEE7FEE7FEE7FEE7FEE706
:1002D000E90D00089D5F0008990200082DE9F05F14
:1002E0000546002092469B468846064681464024A5
:1002F0001BE0284641464746224600F06FF8534629
:100300005A46C01A914110D311461846224600F0B1
:1003100056F82D1A67EB01084F46224601200021AE
:1003200000F04DF817EB00094E41201EA4F1010426
:10033000DFDC484631462A464346BDE8F09FD2B24C
:1003400001E000F8012B491EFBD270470022F6E7BE
:1003500010B513460A4604461946FFF7F0FF20463B
:1003600010BDC1F30A52C1F3130140F2FF3341F44F
:1003700080119A4202DA00200146704740F233436E
:100380009A42A2F2334202DC524200F027B800F057
:1003900016B830B50B46014600202022012409E0A2
:1003A00021FA02F59D4205D303FA02F5491B04FA2E
:1003B00002F52844151EA2F10102F1DC30BD202A0D
:1003C00004DB203A00FA02F1002070479140C2F1AC
:1003D000200320FA03F3194390407047202A04DBDE
:1003E000203A21FA02F00021704721FA02F3D040AE
:1003F000C2F1200291400843194670472DE9FE4F93
:10040000804681EA0300C00F0C46009021F00041B5
:1004100023F00045B8EB0200A94105D24046214631
:1004200090461C460B46024623F00040104347D03E
:10043000270DC7F30A00C3F30A510290401A019036
:1004400040286BDAC3F3130040F4801B00989246F7
:1004500020B10023D2EB030A63EB0B0B0198594642
:10046000C0F140025046FFF7AAFF06460D4650462F
:100470005946019A00F074F910EB0800614100241C
:1004800087EA115284EAE7731A4340D0009A62B3B4
:10049000019A012A4FEA075215DC001B61EB0201A9
:1004A0004FF0004202EA0752CDE90042001C41F53C
:1004B000801132462B4600F074F903B0BDE8F08F8E
:1004C00040462146F9E7001B61EB0201001C41F5A3
:1004D000801300185B412018A2F5001747EB0301B9
:1004E00040EAD570B6196D4111E06D084FEA360645
:1004F00045EAC0754FEA0752001B61EB0201001C80
:1005000041F5801149084FEA300000195141324647
:100510002B4603B0BDE8F04F00F034B9009801223B
:1005200040000023D0EB020263EBE0730098214609
:100530004FEAE074B8EB000061EB0401E9E783F0F7
:1005400000435BE781F0004158E72DE9FE4F81EA67
:10055000030404F0004421F0004100944FF0000B2C
:1005600023F0004350EA01045ED052EA03045BD05A
:10057000C3F30A54C1F30A552C44A4F2F334019492
:10058000A0FB0254C1F3130141F48011C3F3130320
:1005900043F4801301FB024400FB034E840A970AD4
:1005A00044EA815447EA8357A4FB076802958D0A01
:1005B00005FB07854FEA932C04FB0C542705029D8D
:1005C0004FEA065847EA1637B5EB08056EEB070CFD
:1005D000870E920E47EA811742EA8312A7FB0201B7
:1005E000B6EB0B0164EB00042B0D43EA0C335E18F1
:1005F00044EB1C50DA465146E7FB0201C5F31304F5
:100600004FEA0B3343EA14534FEA0432019C43EAA6
:100610000603A4F10C040294009CCDE900B400F0A0
:10062000C0F803B0BDE8F08F00200146F9E72DE9DE
:10063000F04D81EA030404F0004B21F0004514461C
:100640004FF0000A23F0004150EA050220D054EA9E
:1006500001021DD0C5F30A570246C5F31303C1F3C7
:100660001300C1F30A5640F4801543F48013A7EB3E
:100670000608101BD64608F2FD3873EB050002D3BE
:1006800008F1010801E092185B41B8F1000F03DAAC
:1006900000200146BDE8F08D00204FF48011064691
:1006A00084460EE0171B73EB050705D3121B63EBA3
:1006B000050306434CEA010C49084FEA3000921842
:1006C0005B4150EA0107EDD152EA030012D082EA01
:1006D000040083EA0501084305D0101BAB4106D294
:1006E0000122002306E000224FF0004302E06FF0F9
:1006F000010253101AEB06004CEB085110EB0A00F4
:1007000041EB0B01BDE8F04D00F03CB830B5041EE4
:1007100071F1000404DB4FF00044404264EB01013E
:10072000141E73F1000405DB1C464FF000435242D7
:1007300063EB0403994208BF904230BD064C074D5D
:1007400006E0E06840F0010394E8070098471034A1
:10075000AC42F6D3FFF7A4FD907E0008B07E0008FF
:10076000202A06DBCB17203A41FA02F043EAE07375
:1007700006E041FA02F3D040C2F120029140084362
:100780001946704710B5141E73F1000408DA401CB6
:1007900041F1000192185B411A4301D120F00100A0
:1007A00010BD2DE9F04D92469B4611B1B1FA81F290
:1007B00002E0B0FA80F220329046FFF700FE0446D5
:1007C0000F4640EA0A0041EA0B0153465A460843E5
:1007D00013D0114653EA010019D0C8F14002504627
:1007E000FFF7FCFD05460E46504659464246FFF7C8
:1007F000E6FD084305D0012004E020463946BDE867
:10080000F08D0020054346EAE0762C4337430A98F2
:100810006305E40AA0EB08000022FD0A44EA4754FD
:100820000A3002D500200146E9E7010510196941A7
:10083000DDE9084500196941BDE8F04DA2E700BFB8
:10084000FEE7000010B5024800F01AFF10BD0000DE
:100850007802002410B5024800F012FF10BD00001D
:10086000F002002410B5024800F00AFF10BD00009D
:10087000000200240146374A0868904249D0354AB0
:1008800018320868904244D0324A303208689042A8
:100890003FD0304A4832086890423AD02D4A603200
:1008A0000868904235D02B4A78320868904230D0A0
:1008B000284A9032086890422BD0264AA83208680D
:1008C000904226D0244A0868904222D0224A183208
:1008D000086890421DD0204A30320868904218D0F3
:1008E0001D4A48320868904213D01B4A603208689B
:1008F00090420ED0184A78320868904209D0164AC1
:1009000090320868904204D0134AA8320868904296
:1009100001D1012000E00020B0B10A78103A18237C
:10092000B2FBF3F000F007020C4B9A5CCA65032897
:1009300005D90A686FF30902121D8A6503E00A6887
:100940006FF309028A6503E0086820F0FF008865FC
:10095000886D70471000024010040240507E00086D
:1009600010B502682B4C0368A34222D0294C1434E2
:100970000368A3421DD0274C28340368A34218D033
:10098000244C3C340368A34213D0224C50340368F7
:10099000A3420ED01F4C64340368A34209D01D4CFF
:1009A00078340368A34204D01A4C8C340368A34201
:1009B00001D1012300E000238BB10378083B14240C
:1009C000B3FBF4F1144B03EB81030366124B80334A
:1009D000436601F01F040123A340836618E00378F7
:1009E000103B1824B3FBF4F10C4B9A4204D80B4B88
:1009F000A83B9A4200D30831094B03EB81030366FD
:100A0000074B8033436601F01F040123A340836634
:100A100010BD00000854025800580258B8040240A3
:100A2000000802400179A9B3082940D8204B026888
:100A30009A4222D01E4B143302689A421DD01C4B9E
:100A4000283302689A4218D0194B3C3302689A4204
:100A500013D0174B503302689A420ED0144B6433B4
:100A600002689A4209D0124B783302689A4204D045
:100A70000F4B8C3302689A4201D1012200E0002220
:100A80004AB14A1E0B4B03EB8202C266094A40324E
:100A9000026708E00BE04A1E074B03EB8202C266C6
:100AA000054A403202674A1E01239340436770475C
:100AB000085402580059025800090240014600201B
:100AC0008A69D2B98A6A32B1012A0DD0022A03D0CA
:100AD000032A10D10EE000BFCA6A02F08072B2F1A0
:100AE000807F00D1012007E0CA6AB2F1C07F00D147
:100AF000012001E000E000BF36E08A69B2F5005F46
:100B00001BD18A6A32B1012A07D0022A03D0032AF4
:100B100011D10AE000BF01200EE0CA6A02F0807223
:100B2000B2F1807F00D1012006E0CA6AB2F1C07F35
:100B300000D1012000E000BF16E08A6A32B1012A2C
:100B400005D0022A04D0032A0CD103E000BF00BF65
:100B5000012008E0CA6A02F08072B2F1807F00D101
:100B6000012000E000BF00BF70470000F0B5856DB8
:100B7000846D984F0668BE4270D0964F183706684D
:100B8000BE426BD0934F30370668BE4266D0914F5D
:100B900048370668BE4261D08E4F60370668BE4255
:100BA0005CD08C4F78370668BE4257D0894F90375B
:100BB0000668BE4252D0874FA8370668BE424DD065
:100BC000854F0668BE4249D0834F18370668BE423B
:100BD00044D0814F30370668BE423FD07E4F483701
:100BE0000668BE423AD07C4F60370668BE4235D0B8
:100BF000794F78370668BE4230D0774F9037066815
:100C0000BE422BD0744FA8370668BE4226D0734F21
:100C10000668BE4222D0714F14370668BE421DD00E
:100C20006E4F28370668BE4218D06C4F3C370668B6
:100C3000BE4213D0694F50370668BE420ED0674F90
:100C400064370668BE4209D0644F78370668BE42F2
:100C500004D0624F8C370668BE4201D1012600E005
:100C600000263EB1D0E919767E60C66E16B1D0E995
:100C70001C767E60574F0668BE4249D0554F1837E4
:100C80000668BE4244D0534F30370668BE423FD05C
:100C9000504F48370668BE423AD04E4F603706681C
:100CA000BE4235D04B4F78370668BE4230D0494FF0
:100CB00090370668BE422BD0464FA8370668BE4222
:100CC00026D0454F0668BE4222D0434F18370668EB
:100CD000BE421DD0404F30370668BE4218D03E4F4E
:100CE00048370668BE4213D03B4F60370668BE42A5
:100CF0000ED0394F78370668BE4209D0364F90374C
:100D00000668BE4204D0344FA8370668BE4201D1FF
:100D1000012600E00026DEB190F85C6006F01F07B7
:100D20003F26BE40AE600668366826F48026076817
:100D30003E60066873608668402E04D10668B26023
:100D40000668F16044E00668B1600668F2603FE062
:100D5000224F0668BE4222D0204F14370668BE429A
:100D60001DD01E4F28370668BE4218D01B4F3C3797
:100D70000668BE4213D0194F50370668BE420ED0E7
:100D8000164F64370668BE4209D0144F783706689C
:100D9000BE4204D0114F8C370668BE4201D10126F5
:100DA00000E00026A6B190F85C6006F01F0701265F
:100DB000BE406660066873608668402E04D106688F
:100DC000B2600668F16003E00668B1600668F26030
:100DD000F0BD000010000240100402400854025808
:100DE000704772B600BFFEE70748006840F0020097
:100DF0000549086000BF04480838006800F4005046
:100E00000028F8D0704700000C4802582DE9F04146
:100E1000044601F035FF804614B90120BDE8F08199
:100E200094F83500022808D08020606500BF0020BB
:100E300084F8340000BF0120F0E7FE4920688842B2
:100E400049D0FC4918312068884244D0F9493031F2
:100E5000206888423FD0F7494831206888423AD01C
:100E6000F44960312068884235D0F24978312068F1
:100E7000884230D0EF499031206888422BD0ED492C
:100E8000A8312068884226D0EB492068884222D0C9
:100E9000E9491831206888421DD0E749303120687F
:100EA000884218D0E44948312068884213D0E2498A
:100EB0006031206888420ED0DF497831206888424E
:100EC00009D0DD4990312068884204D0DA49A83140
:100ED0002068884201D1012000E0002068B120682C
:100EE000006820F01E00216808602068406920F03A
:100EF000800021684861256806E02068006820F0CD
:100F00000E00216808602568CA492068884270D0B0
:100F1000C8491831206888426BD0C64930312068F2
:100F2000884266D0C34948312068884261D0C149AF
:100F30006031206888425CD0BE49783120688842A0
:100F400057D0BC4990312068884252D0B949A83165
:100F5000206888424DD0B8492068884249D0B649B7
:100F600018312068884244D0B34930312068884223
:100F70003FD0B1494831206888423AD0AE4960310B
:100F80002068884235D0AC4978312068884230D01A
:100F9000A9499031206888422BD0A749A831206800
:100FA000884226D0A5492068884222D0A34914311E
:100FB000206888421DD0A14928312068884218D075
:100FC0009E493C312068884213D09C4950312068AA
:100FD00088420ED0994964312068884209D09749E7
:100FE00078312068884204D094498C312068884246
:100FF00001D1012000E0002028B1206E006820F41B
:101000008070216E08608B492068884249D08949E8
:1010100018312068884244D086493031206888429F
:101020003FD084494831206888423AD081496031B4
:101030002068884235D07F4978312068884230D096
:101040007C499031206888422BD07A49A8312068A9
:10105000884226D078492068884222D076491831C3
:10106000206888421DD0744930312068884218D0E9
:10107000714948312068884213D06F496031206837
:1010800088420ED06C4978312068884209D06A497C
:1010900090312068884204D06749A831206888428E
:1010A00006D12068006820F001002168086005E092
:1010B0002068006820F001002168086011E001F05C
:1010C000DFFDA0EB080005280BD920206065032078
:1010D00084F8350000BF002084F8340000BF0120F0
:1010E0009CE6286800F001000028E8D151492068FA
:1010F000884249D04F4918312068884244D04D4930
:101100003031206888423FD04A49483120688842BF
:101110003AD0484960312068884235D04549783115
:101120002068884230D043499031206888422BD0D3
:101130004049A8312068884226D03F49206888422B
:1011400022D03D491831206888421DD03A493031BB
:101150002068884218D0384948312068884213D026
:1011600035496031206888420ED033497831206893
:10117000884209D0304990312068884204D02E49F5
:10118000A8312068884201D1012000E0002040B150
:10119000A66D94F85C0000F01F013F208840B0600D
:1011A00007E0A76D94F85C0000F01F010120884063
:1011B000786020492068884276D01E49183120681E
:1011C000884271D01B493031206888426CD019495F
:1011D00048312068884267D01649603120688842CB
:1011E00062D014497831206888425DD0114990312D
:1011F0002068884258D00F49A8312068884253D0CF
:101200000D49206888424FD00B4918312068884228
:101210004AD0094930312068884245D006494831D2
:101220002068884240D004496031206888423BD021
:10123000014905E010000240100402400854025821
:101240007831206888422FD02549206888422BD0E9
:10125000234918312068884226D0224920688842D4
:1012600022D020491431206888421DD01D492831E0
:101270002068884218D01B493C312068884213D02E
:1012800018495031206888420ED0164964312068D0
:10129000884209D0134978312068884204D0114926
:1012A0008C312068884201D1012000E0002068B123
:1012B000D4E919104860E06E40B1E06E006820F497
:1012C0008070E16E0860D4E91C104860012084F849
:1012D000350000BF002084F8340000BF00BF9DE54A
:1012E000A00402400854025870B504460CB901200D
:1012F00070BD94F83500022803D08020606501207D
:10130000F6E7DC492068884249D0DA49183120687C
:10131000884244D0D7493031206888423FD0D549EF
:101320004831206888423AD0D249603120688842EA
:1013300035D0D04978312068884230D0CD499031BD
:10134000206888422BD0CB49A8312068884226D01B
:10135000C9492068884222D0C7491831206888428C
:101360001DD0C54930312068884218D0C249483163
:101370002068884213D0C0496031206888420ED06E
:10138000BD4978312068884209D0BB499031206836
:10139000884204D0B849A8312068884201D1012090
:1013A00000E00020F0B3042084F83500B149206843
:1013B00088424BD0AF4918312068884246D0AD49A9
:1013C00030312068884241D0AA494831206888429B
:1013D0003CD0A84960312068884237D0A54978318F
:1013E0002068884232D0A3499031206888422DD0AD
:1013F000A049A8312068884228D09F4920688842A7
:1014000024D09D491831206888421FD09A49303134
:10141000206888421AD0984948312068884215D0FF
:10142000954900E020E06031206888420ED0924962
:1014300078312068884209D08F49903120688842ED
:1014400004D08D49A8312068884206D12068006800
:1014500020F001002168086009E12068006820F0A0
:1014600001002168086002E12068006820F00E0099
:10147000216808607F492068884249D07D49183139
:101480002068884244D07B493031206888423FD070
:1014900078494831206888423AD0764960312068DE
:1014A000884235D0734978312068884230D07149FC
:1014B0009031206888422BD06E49A831206888423C
:1014C00026D06D492068884222D06B4918312068A7
:1014D00088421DD0684930312068884218D066495A
:1014E00048312068884213D06349603120688842BF
:1014F0000ED0614978312068884209D05E49903128
:101500002068884204D05C49A8312068884206D10E
:101510002068006820F001002168086005E020686C
:10152000006820F001002168086052492068884264
:1015300070D050491831206888426BD04D49303105
:101540002068884266D04B4948312068884261D083
:1015500048496031206888425CD04649783120682B
:10156000884257D0434990312068884252D041493F
:10157000A831206888424DD03F492068884249D030
:101580003D4918312068884244D03B4930312068B9
:1015900088423FD038494831206888423AD036499D
:1015A00060312068884235D03349783120688842DC
:1015B00030D031499031206888422BD02E49A83153
:1015C0002068884226D02D492068884222D02B49A5
:1015D0001431206888421DD028492831206888426B
:1015E00018D026493C312068884213D02349503115
:1015F000206888420ED0214964312068884209D091
:101600001E4978312068884204D01C498C312068FA
:10161000884201D1012000E00020D8B1206E00688E
:1016200020F48070216E0860A56D94F85C0000F0D5
:101630001F01012088406860D4E919104860E06EFD
:1016400040B1E06E006820F48070E16E0860D4E97B
:101650001C104860012084F8350000BF002084F889
:10166000340000BF206D10B12046216D8847002056
:101670003EE60000100002401004024008540258E8
:101680002DE9F84F044600200090FE4800684FF412
:101690001651B0FBF1FAA66DD4F858803768D8F827
:1016A0000090F9492068884249D0F74918312068EC
:1016B000884244D0F4493031206888423FD0F24912
:1016C0004831206888423AD0EF496031206888422A
:1016D00035D0ED4978312068884230D0EA499031E0
:1016E000206888422BD0E849A8312068884226D05B
:1016F000E6492068884222D0E449183120688842AF
:101700001DD0E24930312068884218D0DF49483185
:101710002068884213D0DD496031206888420ED0AD
:10172000DA4978312068884209D0D8499031206858
:10173000884204D0D549A8312068884201D10120CF
:1017400000E0002000287DD094F85C0000F01F012C
:10175000082088403840002868D0CB49206888425B
:1017600049D0C94918312068884244D0C64930312F
:10177000206888423FD0C4494831206888423AD026
:10178000C14960312068884235D0BF49783120682E
:10179000884230D0BC499031206888422BD0BA4969
:1017A000A8312068884226D0B8492068884222D0D3
:1017B000B6491831206888421DD0B44930312068BC
:1017C000884218D0B14948312068884213D0AF49C7
:1017D0006031206888420ED0AC4978312068884258
:1017E00009D0AA4990312068884204D0A749A8317D
:1017F0002068884204D12068006800F0040003E0FB
:101800002068006800F0080080B12068006820F0BF
:1018100004002168086094F85C0000F01F010820B3
:101820008840B060606D40F00100606594F85C0035
:1018300000F01F01012088403840E8B39249206839
:10184000884200E0B7E24BD08F49183120688842C7
:1018500046D08D4930312068884241D08A4948318C
:10186000206888423CD0884960312068884237D05F
:10187000854978312068884232D083499031206888
:1018800088422DD08049A8312068884228D07F49DD
:101890002068884224D07D491831206888421FD0B2
:1018A0007A493031206888421AD078494831206816
:1018B000884215D0754900E026E0603120688842F2
:1018C0000ED0724978312068884209D06F49903132
:1018D0002068884204D06D49A8312068884204D12C
:1018E0002068406900F0800002E020680068002065
:1018F00050B194F85C0000F01F0101208840B060F6
:10190000606D40F00200606594F85C0000F01F011B
:10191000042088403840E8B35B49206888424BD0B7
:10192000594918312068884246D0574930312068DB
:10193000884241D054494831206888423CD05249BD
:1019400060312068884237D04F497831206888421A
:1019500032D04D499031206888422DD04A49A83173
:101960002068884228D049492068884224D04749C5
:101970001831206888421FD044493031206888429D
:101980001AD0424948312068884215D03F49603119
:10199000206800E024E088420ED03C49783120687D
:1019A000884209D0394990312068884204D03749AB
:1019B000A8312068884204D12068006800F0020045
:1019C00002E020680068002050B194F85C0000F04C
:1019D0001F0104208840B060606D40F00400606525
:1019E00094F85C0000F01F01102088403840E8B3F4
:1019F00025492068884251D02349183120688842FF
:101A00004CD0214930312068884247D01E494831A6
:101A10002068884242D01C496031206888423DD00D
:101A2000194978312068884238D0174990312068A8
:101A3000884233D01449A831206888422ED01349F7
:101A4000206888422AD0114918312068884225D060
:101A50000E4930312068884220D00C494831206836
:101A600088421BD009496031206800E04DE088427F
:101A700014D006497831206888420FD0034990314C
:101A8000206805E01C000024100002401004024001
:101A9000884203D0FE492068884204D1206800684B
:101AA00000F0080003E02068006800F0040060B364
:101AB00094F85C0000F01F0110208840B06020689E
:101AC000006800F4802080B12068006800F40020E5
:101AD00028B9206CC8B12046216C884715E0A06C5D
:101AE00098B12046A16C88470FE02068006800F498
:101AF000807028B92068006820F00800216808601C
:101B0000206C10B12046216C884794F85C0000F0EE
:101B10001F0120208840384000287DD0DD49206802
:101B2000884249D0DB4918312068884244D0D949DD
:101B30003031206888423FD0D649483120688842F9
:101B40003AD0D44960312068884235D0D1497831C3
:101B50002068884230D0CF499031206888422BD00D
:101B6000CC49A8312068884226D0C949A8392068C4
:101B7000884221D0C6499039206888421CD0C44987
:101B800078392068884217D0C14960392068884276
:101B900012D0BF494839206888420DD0BC4930393D
:101BA0002068884208D0BA4918392068884203D092
:101BB000B7492068884204D12068006800F010000E
:101BC00003E02068006800F0020028B394F85C008D
:101BD00000F01F0120208840B06094F835000428F0
:101BE0002DD12068006820F0160021680860206868
:101BF000406920F0800021684861206C08B9A06C21
:101C000028B12068006820F008002168086094F876
:101C10005C0000F01F0100E03FE03F208840B06022
:101C2000012084F8350000BF002084F8340000BF94
:101C3000206D10B12046216D8847BDE8F88F2068DF
:101C4000006800F4802080B12068006800F4002063
:101C500028B9606C08B32046616C88471DE0E06BD2
:101C6000D8B12046E16B884717E02068006800F48F
:101C7000807068B92068006820F010002168086052
:101C8000012084F8350000BF002084F8340000BF34
:101C9000E06B10B12046E16B8847606D00287AD078
:101CA000606D00F00100E8B3042084F83500794944
:101CB000206888424BD0774918312068884246D046
:101CC000744930312068884241D0724948312068D7
:101CD00088423CD06F4960312068884237D06D49D6
:101CE00078312068884232D06A4990312068884231
:101CF0002DD06849A8312068884228D06449A83985
:101D00002068884223D062499039206888421ED0DA
:101D10005F4978392068884219D05D496039206868
:101D2000884200E040E012D0594948392068884292
:101D30000DD0574930392068884208D054491839A5
:101D40002068884203D052492068884206D1206822
:101D5000006820F001002168086005E02068006844
:101D600020F001002168086000BF0098401C00902E
:101D7000504500D905E02068006800F00100002807
:101D8000F3D100BF2068006800F0010020B10320FB
:101D900084F8350003E00DE0012084F8350000BF31
:101DA000002084F8340000BFE06C002802D02046F8
:101DB000E16C8847D9E138492068884222D0364909
:101DC0001431206888421DD0334928312068884268
:101DD00018D031493C312068884213D02E49503107
:101DE000206888420ED02C4964312068884209D08E
:101DF000294978312068884204D027498C312068ED
:101E0000884201D1012000E000200028D2D02068C3
:101E1000056894F85C0000F01F010420884000EA87
:101E20000900D8B305F00400C0B394F85C0000F0DA
:101E30001F0104208840C8F8040005F4004080B168
:101E400005F4803030B9A06C0028B3D02046A16CD6
:101E500088478AE1206C0028ACD02046216C884756
:101E600083E105F02000E8BB0A492068884253D08E
:101E700008491831206888424ED006493031206820
:101E8000884249D0034948312068884244D006E05E
:101E9000B804024010000240085402584FE0B44910
:101EA00060312068884237D0B14978312068884253
:101EB00032D0AF499031206888422DD0AC49A8314A
:101EC0002068884228D0AB492068884224D0A9499C
:101ED0001831206888421FD0A649303120688842D6
:101EE0001AD000E025E0A34948312068884213D089
:101EF000A0496031206888420ED09E497831206820
:101F0000884209D09B4990312068884204D0994981
:101F1000A8312068884206D12068006820F00800B7
:101F20002168086005E02068006820F0040021684E
:101F30000860206C10B32046216C884715E194F8A6
:101F40005C0000F01F010220884000EA0900E8B3AD
:101F500005F00200D0B394F85C0000F01F010220ED
:101F60008840C8F8040005F4004070B105F48030E2
:101F700028B9606C10B12046616C8847F5E0E06BD1
:101F8000F0B32046E16B8847EFE005F02000C0BBCE
:101F90007749206888424ED07549183120688842B8
:101FA00049D0734930312068884244D07049483163
:101FB000206888423FD06E496031206888423AD01C
:101FC0006B4978312068884235D000E04EE068499E
:101FD0009031206888422ED06549A8312068884217
:101FE00029D064492068884225D062491831206888
:101FF000884220D05F493031206888421BD001E000
:102000006EE02DE05B4948312068884213D0594981
:102010006031206888420ED0564978312068884265
:1020200009D0544990312068884204D05149A831E0
:102030002068884206D12068006820F014002168DA
:10204000086005E02068006820F00A002168086048
:10205000012084F8350000BF002084F8340000BF60
:10206000E06BE8B32046E16B88477EE094F85C00C3
:1020700000F01F010820884000EA090080B305F045
:10208000080068B33A49206888424BD03849183173
:102090002068884246D0364930312068884241D095
:1020A00033494831206888423CD03149603120684A
:1020B000884237D02E4978312068884232D02C4966
:1020C0009031206888422DD02949A8312068884263
:1020D00028D028492068884224D02649183100E0B9
:1020E00043E0206888421DD0224930312068884270
:1020F00018D0204948312068884213D01D496031EA
:10210000206888420ED01B4978312068884209D067
:10211000184990312068884204D01649A8312068B7
:10212000884206D12068006820F01C002168086001
:1021300005E02068006820F00E002168086094F82F
:102140005C0000F01F0101208840C8F80400012055
:10215000606584F8350000BF002084F8340000BFBB
:10216000E06C10B12046E16C884700BF65E50000D7
:1021700010000240100402402DE9F041044600F036
:102180007FFD804614B90120BDE8F081FE4920683A
:10219000884249D0FC4918312068884244D0FA4925
:1021A0003031206888423FD0F74948312068884262
:1021B0003AD0F54960312068884235D0F24978310B
:1021C0002068884230D0F0499031206888422BD076
:1021D000ED49A8312068884226D0EC492068884221
:1021E00022D0EA491831206888421DD0E7493031B1
:1021F0002068884218D0E54948312068884213D0C9
:10220000E2496031206888420ED0E0497831206888
:10221000884209D0DD4990312068884204D0DB49EA
:10222000A8312068884201D1012000E00020002868
:1022300073D0606A00B100BF022084F8350000BF8F
:10224000002084F8340000BFCF492068884249D07C
:10225000CD4918312068884244D0CB4930312068BC
:1022600088423FD0C8494831206888423AD0C649A0
:1022700060312068884235D0C3497831206888426F
:1022800030D0C1499031206888422BD0BE49A83156
:102290002068884226D0BD492068884222D0BB49A8
:1022A0001831206888421DD0B849303120688842F2
:1022B00018D0B64948312068884213D0B3496031FC
:1022C000206888420ED0B14978312068884209D010
:1022D000AE4990312068884204D0AC49A8312068CA
:1022E000884206D12068006820F00100216808605B
:1022F00005E02068006820F00100216808600DE01A
:1023000000F0BEFCA0EB0800052807D9202060657E
:10231000032084F83500012036E76AE02068006871
:1023200000F001000028EBD12068056898480540BE
:10233000D4E9020108432169084361690843A1699E
:102340000843E1690843216A08430543606A042899
:1023500003D1D4E90B01084305438E4800686FF3AD
:102360000F00B0F1005F1DD36068292802D36068B8
:102370002E2811D960683F2802D3606842280BD903
:102380006068472802D36068482805D960684F28EC
:1023900004D36068522801D8012000E0002008B171
:1023A00045F48015206805602068456925F007051B
:1023B000606A0543606A04280DD1A06A0543E06A9B
:1023C00048B12046FEF77AFB28B140206065012025
:1023D00084F83500D8E6206845612046FEF74AFAC1
:1023E000064694F85C0000F01F013F208840B06072
:1023F0009EE069492068884222D0674914312068EC
:1024000088421DD0644928312068884218D062492A
:102410003C312068884213D05F495031206888429F
:102420000ED05D4964312068884209D05A4978311C
:102430002068884204D058498C312068884201D1F4
:10244000012000E00020E0B353492068884222D0F8
:1024500051491431206888421DD04F4928312068E5
:10246000884218D04C493C312068884213D04A49F0
:102470005031206888420ED0474964312068884234
:1024800009D0454978312068884204D042498C31CE
:102490002068884201D1012000E0002000B100BF87
:1024A000022084F8350000BF002084F8340000BF0B
:1024B0002068056839480540A068402802D11021ED
:1024C00006E02EE0A068802801D1C10100E00021D3
:1024D000E06841EAD001206941EAD001606941EA3F
:1024E000D001A06941EAD001E06941EAD001206A47
:1024F00041EA101005432068056027492068401A0A
:102500001421B0FBF1F08000E0652046FEF7B2F93F
:10251000074694F85C0000F01F01012088407860B5
:1025200006E040206065032084F8350001202BE69A
:102530001549206888427FD01349183120688842A5
:102540007AD0114930312068884275D00E4948311F
:102550002068884270D00C496031206888426BD076
:10256000094978312068884266D00749903120684F
:10257000884261D00449A831206888425CD0034970
:102580002068884258D00BE010000240100402403E
:102590003F8010FE0010005C085402580F00FEFF40
:1025A0003B4918312068884246D03949303120688B
:1025B000884241D036494831206888423CD034496D
:1025C00060312068884237D03149783120688842AC
:1025D00032D02F499031206888422DD02C49A83123
:1025E0002068884228D02B492068884224D0294975
:1025F0001431206888421FD026492831206888423B
:102600001AD024493C312068884215D021495031E4
:102610002068884210D01F496431206888420BD05E
:102620001C4978312068884206D01A498C312068CC
:10263000884200E000E001D1012000E0002000B36A
:102640002046FEF78DF9A068802801D10020606047
:102650002079216E0860D4E919104860606860B183
:102660006068082809D82046FEF7DCF90020E16EF2
:102670000860D4E91C10486003E00020E066206791
:10268000606700206065012084F8350000207BE54C
:1026900010040240085402582DE9F04104460D464A
:1026A00016461F464FF0000814B90120BDE8F0811E
:1026B00000BF94F83400012801D10220F6E7012080
:1026C00084F8340000BF94F8350001287ED1022040
:1026D00084F8350000206065E4492068884249D0CC
:1026E000E24918312068884244D0E04930312068FE
:1026F00088423FD0DD494831206888423AD0DB49E2
:1027000060312068884235D0D849783120688842C5
:1027100030D0D6499031206888422BD0D349A83197
:102720002068884226D0D2492068884222D0D049E9
:102730001831206888421DD0CD4930312068884248
:1027400018D0CB4948312068884213D0C84960313D
:10275000206888420ED0C64978312068884209D066
:10276000C34990312068884204D0C149A83120680B
:10277000884206D12068006820F0010021680860C6
:1027800005E02068006820F00100216808603B46F1
:10279000324629462046FEF7E9F9B44920688842C6
:1027A0004BD0B24918312068884246D0AF49303109
:1027B0002068884241D0AD494831206888423CD0E9
:1027C000AA4960312068884237D000E042E1A74939
:1027D00078312068884230D0A449903120688842FE
:1027E0002BD0A249A8312068884226D0A049206871
:1027F000884222D09E491831206888421DD09C49C9
:1028000030312068884218D0994948312068884280
:1028100013D097496031206888420ED094497831AE
:102820002068884209D0924990312068884204D0BB
:102830008F49A8312068884201D1012000E00020A2
:1028400080B12068006820F01E0040F0160021686A
:102850000860206CB0B12068006840F00800216872
:1028600008600FE02068006820F00E0040F00A00C9
:1028700021680860206C28B12068006840F00400DE
:102880002168086079492068884270D077491831FA
:10289000206888426BD0754930312068884266D004
:1028A000724948312068884261D07049603120689F
:1028B00088425CD06D4978312068884257D06B4996
:1028C00090312068884252D06849A83120688842F7
:1028D0004DD067492068884249D065491831206841
:1028E000884244D062493031206888423FD06049F4
:1028F0004831206888423AD05D496031206888427A
:1029000035D05B4978312068884230D058499031C1
:10291000206888422BD05649A8312068884226D0AA
:1029200054492068884222D0524914312068884294
:102930001DD0504928312068884218D04D493C317B
:102940002068884213D04B495031206888420ED00D
:10295000484964312068884209D046497831206866
:10296000884204D043498C312068884201D101203B
:1029700000E0002090B1206E006800F4803028B1A3
:10298000206E006840F48070216E0860E06E28B10F
:10299000E06E006840F48070E16E086033492068A2
:1029A000884249D0314918312068884244D02F49A3
:1029B0003031206888423FD02C4948312068884215
:1029C0003AD02A4960312068884235D02749783189
:1029D0002068884230D025499031206888422BD029
:1029E0002249A8312068884226D02149206888429F
:1029F00022D01F491831206888421DD01C4930312F
:102A00002068884218D01A4948312068884213D07B
:102A100017496031206888420ED015497831206806
:102A2000884209D0124990312068884204D0104968
:102A3000A8312068884206D12068006840F0010073
:102A40002168086010E02068006840F001002168FB
:102A5000086009E04FF40060606500BF002084F862
:102A6000340000BF4FF0010840461FE6100002404E
:102A70001004024008540258F8B502460B460021E3
:102A80006F4DD7E001278F401E6806EA0704002C2F
:102A900072D01E7906F00306012E04D01E7906F0CE
:102AA0000306022E13D190684F000326BE40B043A8
:102AB0004F00DE68BE4030439060506801268E4073
:102AC000B0431E79C6F300168E40304350601E7925
:102AD00006F00306032E09D0D0684F000326BE403F
:102AE000B0434F009E68BE403043D0601E7906F070
:102AF0000306022E13D1CF0802F1200656F8270054
:102B00004E07F70E0F26BE40B0434F07FF0E1E695B
:102B1000BE403043CF0802F1200646F82700106877
:102B20004F000326BE40B0431E7906F003064F0057
:102B3000BE40304310605E6806F44036002E78D008
:102B400000BF404E366846F002063E4F3E603E46AD
:102B5000366806F00206009600BF00BF3A4E8F08A6
:102B600056F827008E07370F0F26BE40B043374E6A
:102B7000B24202D100262EE05BE0354EB24201D1D6
:102B8000012628E0334EB24201D1022623E0324E24
:102B9000B24201D103261EE0304EB24201D10426DA
:102BA00019E02F4EB24201D1052614E02D4EB2425B
:102BB00001D106260FE02C4EB24201D107260AE0D1
:102BC0002A4EB24201D1082605E0294EB24201D177
:102BD000092600E00A268F073F0FBE4030431A4EF9
:102BE0008F0846F827004FF0B0463068A0435E6873
:102BF00006F4801606B120434FF0B046306070688E
:102C0000A0435E6806F4001606B120434FF0B046BC
:102C100070606868A0435E6806F4003606B1204321
:102C200068602868A0435E6806F4803606B12043D9
:102C30002860491C1E68CE40002E7FF423AFF8BDEB
:102C400080000058F444025808040058000002585C
:102C50000004025800080258000C025800100258E4
:102C60000014025800180258001C02580020025894
:102C70000024025801480068000C70470010005CF6
:102C800001480068704700001000002403480068F5
:102C9000034909780844014908607047100000247E
:102CA0001800002410B5032000F0BCF801F0CEFBA2
:102CB00010490968C1F303210F4A515C01F01F015B
:102CC00020FA01F40B48006800F00F001146085C80
:102CD00000F01F0024FA00F008490860084804606A
:102CE0000F2000F00FF808B1012010BD00F036F8F9
:102CF0000020FAE718440258807E000820000024D3
:102D00001C00002470B504461148007808B9012061
:102D100070BD0F4800784FF47A71B1FBF0F00D49A7
:102D20000968B1FBF0F5284602F0D2F808B101209D
:102D3000EEE7102C07D200222146501E00F034F896
:102D40000548046001E00120E2E70020E0E7000020
:102D5000180000241C0000241400002408B500BF43
:102D60000648006840F00200044908600846006810
:102D700000F00200009000BF00BF08BDF4440258FC
:102D80000146084600280DDB00BF00BF00F01F030E
:102D900001229A4043099B0003F1E023C3F800217C
:102DA00000BF00BF00BF70472DE9F05F80460D46B1
:102DB000164603F089FF074639462A46334601F096
:102DC0000700C0F1070ABAF1040F02D94FF0040A54
:102DD00001E0C0F1070AD14600F1040ABAF1070F79
:102DE00002D24FF0000A01E0A0F1030AD4464FF0EE
:102DF000010A0AFA09FAAAF1010A0AEA020A0AFA17
:102E00000CFA4FF0010B0BFA0CFBABF1010B0BEAC8
:102E1000030B4AEA0B042146404603F05DFFBDE880
:102E2000F09F000000BF00F00702064B19684FF644
:102E3000FF031940044B0B4343EA0221014B196085
:102E400000BF70470CED00E00000FA0570B50446C5
:102E500015480068C0F3800048B91348006800F0C6
:102E60000700A04201D0012070BD0020FCE70E4801
:102E7000006820F0070020430B490860FFF700FFBF
:102E8000054607E0FFF7FCFE401BB0F57A7F01D94D
:102E90000120E9E7044808380068C0F34030002802
:102EA000F0D00020E0E700000C48025810B501F017
:102EB00083FA05490968C1F30211044A515C01F023
:102EC0001F01C84010BD000020440258807E000849
:102ED00070B50146844D2D6805F00303824D2D68C1
:102EE000C5F30530804D2D1D2D68C5F300147E4DB2
:102EF00014352D68C5F3CC0515FB04F501EE105A09
:102F0000B8EE411AF0EE410A00286FD023B1012B30
:102F10004ED0022B6BD16BE0734D283D2D68C5F36D
:102F200040153DB3704D283D2D68C5F3C1066F4D6A
:102F300025FA06F201EE102AF8EE411A01EE100A07
:102F4000B8EE411A81EE812A9FED691AC0EE811A0E
:102F5000654D10352D68C5F3080501EE105AB8EE21
:102F6000411A31EE811AF7EE001A31EE211A22EEE3
:102F7000010A1CE001EE100AB8EE411ADFED5D1AFD
:102F800081EE812A9FED5A1AC0EE811A564D1035F6
:102F90002D68C5F3080501EE105AB8EE411A31EE5E
:102FA000811AF7EE001A31EE211A22EE010A5BE0D7
:102FB00001EE100AB8EE411ADFED4F1A81EE812AB8
:102FC0009FED4B1AC0EE811A474D10352D68C5F3A1
:102FD000080501EE105AB8EE411A31EE811AF7EEEB
:102FE000001A31EE211A22EE010A3DE077E01DE0E1
:102FF00001EE100AB8EE411A9FED402AC2EE011A06
:103000009FED3B1A80EE812A374D10352D68C5F3B0
:10301000080501EE105AB8EE411A32EE011AB7EE69
:10302000002A31EE021A21EE810A1DE001EE100A9B
:10303000B8EE411ADFED301A81EE812A9FED2C1A8D
:10304000C0EE811A284D10352D68C5F3080501EE34
:10305000105AB8EE411A31EE811AF7EE001A31EE2D
:10306000211A22EE010A00BF00BF1F4D10352D6846
:10307000C5F3462501EE105AB8EE411AF7EE001AD4
:1030800031EE211AC0EE011ABCEEE11A81ED001AF0
:10309000154D10352D68C5F3064501EE105AB8EEF2
:1030A000411AF7EE001A31EE211AC0EE011ABCEEF9
:1030B000E11A81ED011A0C4D10352D68C5F3066536
:1030C00001EE105AB8EE411AF7EE001A31EE211A4D
:1030D000C0EE011ABCEEE11A81ED021A03E00025F0
:1030E0000D604D608D6070BD284402580090D00383
:1030F000000000460024744C0024744A20BCBE4BDF
:1031000070B50146844D2D6805F00303824D2D688E
:10311000C5F30550804D2D1D2D68C5F300247E4D4F
:103120001C352D68C5F3CC0515FB04F501EE105ACE
:10313000B8EE411AF0EE410A00286FD023B1012BFE
:103140004ED0022B6BD16BE0734D283D2D68C5F33B
:1031500040153DB3704D283D2D68C5F3C1066F4D38
:1031600025FA06F201EE102AF8EE411A01EE100AD5
:10317000B8EE411A81EE812A9FED691AC0EE811ADC
:10318000654D18352D68C5F3080501EE105AB8EEE7
:10319000411A31EE811AF7EE001A31EE211A22EEB1
:1031A000010A1CE001EE100AB8EE411ADFED5D1ACB
:1031B00081EE812A9FED5A1AC0EE811A564D1835BC
:1031C0002D68C5F3080501EE105AB8EE411A31EE2C
:1031D000811AF7EE001A31EE211A22EE010A5BE0A5
:1031E00001EE100AB8EE411ADFED4F1A81EE812A86
:1031F0009FED4B1AC0EE811A474D18352D68C5F367
:10320000080501EE105AB8EE411A31EE811AF7EEB8
:10321000001A31EE211A22EE010A3DE077E01DE0AE
:1032200001EE100AB8EE411A9FED402AC2EE011AD3
:103230009FED3B1A80EE812A374D18352D68C5F376
:10324000080501EE105AB8EE411A32EE011AB7EE37
:10325000002A31EE021A21EE810A1DE001EE100A69
:10326000B8EE411ADFED301A81EE812A9FED2C1A5B
:10327000C0EE811A284D18352D68C5F3080501EEFA
:10328000105AB8EE411A31EE811AF7EE001A31EEFB
:10329000211A22EE010A00BF00BF1F4D18352D680C
:1032A000C5F3462501EE105AB8EE411AF7EE001AA2
:1032B00031EE211AC0EE011ABCEEE11A81ED001ABE
:1032C000154D18352D68C5F3064501EE105AB8EEB8
:1032D000411AF7EE001A31EE211AC0EE011ABCEEC7
:1032E000E11A81ED011A0C4D18352D68C5F30665FC
:1032F00001EE105AB8EE411AF7EE001A31EE211A1B
:10330000C0EE011ABCEEE11A81ED021A03E00025BD
:103310000D604D608D6070BD284402580090D00350
:10332000000000460024744C0024744A20BCBE4BAC
:103330002DE9F04104460025A8464FF00062D4E98B
:10334000001011400020134659404040014331D144
:10335000A06E48B1B0F5801F0DD0B0F5001F11D0A0
:10336000B0F5401F16D114E0F948006840F4003071
:10337000F749086010E0022104F1080002F03CFC6B
:10338000054609E0022104F1280002F0E7FC0546A9
:1033900002E001E0012500BF00BF55B9EC48243030
:1033A000006820F44010A16E0843E9492431086008
:1033B00000E0A8464FF48073D4E9001019400020C3
:1033C0005940404001432ED1A06D05281BD2DFE8B3
:1033D00000F0030A11181900DD48006840F40030BD
:1033E000DB49086011E0002104F1080002F004FC50
:1033F00005460AE0002104F1280002F0AFFC054672
:1034000003E002E001E0012500BF00BF55B9D0484C
:103410002430006820F00700A16D0843CC49243116
:10342000086000E0A8464FF40073D4E9001019408A
:10343000002059404040014334D1E06D802818D02D
:1034400003DC40B140281DD10CE0C02818D0B0F5F5
:10345000807F17D115E0BE48006840F40030BC49B9
:10346000086011E0002104F1080002F0C5FB0546E8
:103470000AE0002104F1280002F070FC054603E098
:1034800002E001E0012500BF00BF55B9B04824307B
:10349000006820F4E070E16D0843AD492431086014
:1034A00000E0A8464FF48063D4E9001019400020E2
:1034B00059404040014339D1D4F8A800B0F5800FFD
:1034C0001AD004DC50B1B0F5001F1ED10DE0B0F5EC
:1034D000C00F18D0B0F5000F17D115E09C48006858
:1034E00040F400309A49086011E0002104F108001E
:1034F00002F082FB05460AE0002104F1280002F0F8
:103500002DFC054603E002E001E0012500BF00BFFD
:103510005DB98F482C30006820F46000D4F8A81002
:1035200008438B492C31086000E0A8464FF4006244
:10353000D4E9001011400020134659404040014397
:1035400039D1D4F8AC00B0F1007F1AD004DC50B10E
:10355000B0F1807F1ED10DE0B0F1407F18D0B0F106
:10356000806F17D115E07A48006840F40030784940
:10357000086011E0002104F1080002F03DFB05465F
:103580000AE0002104F1280002F0E8FB054603E010
:1035900002E001E0012500BF00BF5DB96C482C309E
:1035A000006820F0E060D4F8AC10084368492C3182
:1035B000086000E0A8464FF00073D4E9000118400D
:1035C000002158404940084328D1E06CA8B1102898
:1035D00004D0202809D0302810D10DE05C480068C4
:1035E00040F400305A4908600AE0022104F1080062
:1035F00002F002FB054603E002E001E0012500BF06
:1036000000BF55B952482030006820F03000E16C0E
:1036100008434F492031086000E0A8464FF480532A
:10362000D4E900101940002059404040014337D1EF
:10363000206EB0F5005F1AD004DC50B1B0F5805FA9
:103640001ED10DE0B0F5405F18D0B0F5804F17D116
:1036500015E03F48006840F400303D49086011E043
:10366000002104F1080002F0C7FA05460AE0002133
:1036700004F1280002F072FB054603E002E001E0DD
:10368000012500BF00BF55B931482430006820F43F
:10369000E040216E08432E492431086000E0A8462E
:1036A0004FF40053D4E90010194000205940404025
:1036B000014335D1606EB0F5403F1ED007DC68B1E4
:1036C000B0F5803F0BD0B0F5003F19D10EE0B0F55A
:1036D000802F13D0B0F5A02F12D110E012E00121FD
:1036E00004F1080002F088FA05460BE0012104F11C
:1036F000280002F033FB054604E003E002E001E0AD
:10370000012500BF00BF55B911482430006820F4DE
:10371000E020616E08430E492431086000E0A846AD
:103720004FF48043D4E9000118400021584049403B
:10373000084337D1D4F8B000B0F1405F20D009DCA5
:1037400078B1B0F1805F0DD0B0F1005F1BD110E017
:103750002C440258B0F1804F13D0B0F1A04F12D1D9
:1037600010E012E0012104F1080002F045FA0546DC
:103770000BE0012104F1280002F0F0FA054604E014
:1037800003E002E001E0012500BF00BF4DB9FE48A3
:10379000006820F0E040D4F8B0100843FA4908600F
:1037A00000E0A8464FF40042D4E900101140002088
:1037B000134659404040014329D1206FB0B1B0F1C8
:1037C000805F03D0B0F1005F11D108E0EE482C38E3
:1037D000006840F40030EC492C39086009E0012110
:1037E00004F1080002F008FA054602E001E00125B4
:1037F00000BF00BF55B9E4480838006820F04050C9
:10380000216F0843E0490839086000E0A8464FF0FE
:103810008072D4E900101140002013465940404006
:1038200001432AD1A06CB8B1012804D002280BD0E2
:10383000032812D10FE0D4482C38006840F400303F
:10384000D1492C3908600AE0022104F1080002F095
:10385000D3F9054603E002E001E0012500BF00BF07
:1038600055B9C9480C38006820F00300A16C084322
:10387000C5490C39086000E0A8464FF48002D4E93D
:1038800000011040002113465840494008437DD1B3
:10389000BE48006840F48070BC490860FFF7F0F94A
:1038A000064606E0FFF7ECF9801B642801D90325E2
:1038B00005E0B648006800F480700028F2D000BF30
:1038C00085BBB1481830006800F44070B4F8B410FB
:1038D00001F44071884213D0AB481830006820F4DE
:1038E0004077A9481830006840F48030A649183164
:1038F00008600846006820F48030086008460760C9
:10390000D4F8B400B0F5807F15D1FFF7B9F90646B9
:1039100009E0FFF7B5F9801B41F28831884202D9EE
:10392000032507E038E0984818300068C0F34000ED
:103930000028EED000BF55BB00BFB4F8B40000F4BF
:103940004070B0F5407F0ED18F484838006820F4B1
:103950007C518F4AD4F8B400104041EA10108A49D3
:103960004839086007E088484838006820F47C50EF
:10397000854948390860844818300068B4F8B410A4
:10398000C1F30B0108438049183101E005E001E073
:10399000086002E0A84600E0A8460122D4E9000140
:1039A00010400021134658404940084330D1E06F91
:1039B00018281AD005DC48B1082808D0102817D1DB
:1039C0000CE0202812D0282812D110E012E00121AA
:1039D00004F1080002F010F905460BE0012104F1A2
:1039E000280002F0BBF9054604E003E002E001E034
:1039F000012500BF00BF55B96348001F006820F0D3
:103A00003800E16F08436049091F086000E0A846DC
:103A10000222D4E9000110400021134658404940D9
:103A2000084329D1A06F062816D2DFE800F003046E
:103A30000B12131412E0012104F1080002F0DCF86B
:103A400005460BE0012104F1280002F087F9054644
:103A500004E003E002E001E0012500BF00BF55B92A
:103A60004948001F006820F00700A16F084346493D
:103A7000091F086000E0A8460423D4E9001019409B
:103A8000002059404040014329D1D4F89400062831
:103A900016D2DFE800F003040B12131412E0012128
:103AA00004F1080002F0A8F805460BE0012104F13A
:103AB000280002F053F9054604E003E002E001E0CB
:103AC000012500BF00BF4DB92F48006820F0070056
:103AD000D4F8941008432C49086000E0A84620233D
:103AE000D4E900011840002158404940084337D12B
:103AF000D4F89000B0F1405F1ED007DC68B1B0F19F
:103B0000805F0BD0B0F1005F19D10EE0B0F1804FB3
:103B100013D0B0F1A04F12D110E012E0002104F157
:103B2000080002F069F805460BE0022104F12800C4
:103B300002F014F9054604E003E002E001E001258B
:103B400000BF00BF5DB91048001F006820F0E040D2
:103B5000D4F8901008430C49091F086000E0A846FB
:103B60004023D4E90010194000205940404001434F
:103B70003CD1D4F89C00B0F5406F25D00EDCA0B14C
:103B8000B0F5806F12D005E0584402580048025842
:103B9000FFFCFF0FB0F5006F19D10EE0B0F5805FAC
:103BA00013D0B0F5A05F12D110E012E0002104F1B3
:103BB000080002F021F805460BE0022104F128007C
:103BC00002F0CCF8054604E003E002E001E0012544
:103BD00000BF00BF4DB9FE48006820F4E050D4F8A3
:103BE0009C100843FA49086000E0A8468023D4E905
:103BF00000101940002059404040014335D1D4F80D
:103C0000A000B0F5C04F1ED007DC68B1B0F5005F72
:103C10000BD0B0F5804F19D10EE0B0F5004F13D0A6
:103C2000B0F5204F12D110E012E0002104F108009D
:103C300001F0E2FF05460BE0022104F1280002F04A
:103C40008DF8054604E003E002E001E0012500BF35
:103C500000BF4DB9DE48006820F46040D4F8A010E1
:103C60000843DB49086000E0A8460823D4E90010B7
:103C70001940002059404040014317D1D4F8840036
:103C8000B0F5805F07D1022104F1280002F066F848
:103C900008B14FF00108CE48001F006820F44050E2
:103CA000D4F884100843CA49091F08601023D4E9D6
:103CB00000101940002059404040014315D1D4F86C
:103CC0009800B0F5807F07D1022104F1280002F0AE
:103CD00045F808B14FF00108BD48006820F4407075
:103CE000D4F898100843BA4908604FF40022D4E988
:103CF000000110400021134658404940084327D195
:103D0000D4F8A40030B1B0F5803F0AD0B0F5003F40
:103D10000FD10DE0002104F1080001F06DFF054610
:103D200009E0022104F1280002F018F8054602E03B
:103D300001E0012500BF00BF4DB9A548006820F48F
:103D40004030D4F8A4100843A149086000E0A84618
:103D50004FF48023D4E90001184000215840494025
:103D600008432DD1D4F88800B0F5801F06D0B0F5F7
:103D7000001F0CD0B0F5401F11D10FE094482C3833
:103D8000006840F4003092492C39086009E00121B4
:103D900004F1280001F0E2FF054602E001E0012500
:103DA00000BF00BF5DB98A48001F006820F44010C2
:103DB000D4F8881008438649091F086000E0A84627
:103DC0004FF48032D4E900011040002113465840DE
:103DD0004940084325D1206D18B1B0F5803F10D17E
:103DE00008E07B482C38006840F4003078492C39D2
:103DF000086008E0022104F1080001F0FDFE05461C
:103E000001E0012500BF00BF55B971480C380068BA
:103E100020F48030216D08436D490C39086000E0C2
:103E2000A8464FF00052D4E900101140002013467C
:103E300059404040014307D1022104F1280001F01C
:103E40008DFF08B14FF001084FF40033D4E90001B1
:103E50001840002158404940084329D1D4F8800037
:103E6000A0B1B0F5807F06D0B0F5007F0CD0B0F5E2
:103E7000407F0CD109E056482C38006840F40030EF
:103E800053492C39086004E003E002E001E0012519
:103E900000BF00BF5DB94E48001F006820F44070AD
:103EA000D4F8801008434A49091F086000E0A8467A
:103EB0004FF48012D4E900101140002013465940FD
:103EC0004040014309D142480838006820F00040D2
:103ED000616F08433E49083908604FF08052D4E9C9
:103EE00000101140002013465940404001430AD1C0
:103EF00037484838006820F48040D4F8B8100843A8
:103F00003349483908604FF40012D4E900101140D9
:103F10000020134659404040014309D12C4808383D
:103F2000006820F08070E16E084329490839086074
:103F30004FF08042D4E90010114000201346594050
:103F40004040014311D100BF21484838006820F4A7
:103F500000401F494839086008460068D4F8BC1082
:103F600008431B494839086000BF4FF00042D4E9BC
:103F7000001011400020134659404040014309D130
:103F800013480C38006820F04050616D0843104918
:103F90000C3908604FF40002D4E9001011400020F1
:103FA00013465940404001430AD10948001F0068A8
:103FB00020F44000D4F88C1008430549091F08601C
:103FC000012300216068184001224940504001E06F
:103FD00058440258014306D104F1080001F00CFED8
:103FE000054605B1A84602220021606810404940FC
:103FF0005040014307D1012104F1080001F0FCFD0C
:10400000054605B1A8460423002061681940042232
:1040100040405140084307D1022104F1080001F05B
:10402000EBFD054605B1A84608230021606818404D
:10403000082249405040014306D104F1280001F014
:104040008DFE054605B1A84610220021606810408B
:1040500049405040014307D1012104F1280001F0FB
:104060007DFE054605B1A84620220020616811406A
:1040700040405140084307D1022104F1280001F0DB
:104080006DFE054605B1A846B8F1000F02D100202B
:10409000BDE8F0810120FBE72DE9F04104460D4623
:1040A00014B90120BDE8F081BD48006800F00F00A0
:1040B000A8420ED2BA48006820F00F002843B84941
:1040C00008600846006800F00F00A84201D00120F7
:1040D000E8E7207800F0040004280ED1B1492069F7
:1040E000096801F07001884207D9AE48006820F0E5
:1040F000700021690843AB490860207800F008008F
:10410000082811D1A749091D6069096801F07001EB
:10411000884209D9A348001D006820F07000616939
:104120000843A049091D0860207800F010001028FD
:1041300011D19C49091DA069096801F4E061884218
:1041400009D99848001D006820F4E060A16908437F
:104150009449091D0860207800F02000202811D122
:1041600090490831E069096801F07001884209D975
:104170008C480830006820F07000E16908438949E4
:1041800008310860207800F0020002280ED185492D
:10419000E068096801F00F01884207D9814800688A
:1041A00020F00F00E16808437E490860207800F0A5
:1041B0000100002850D07B48006820F47060A1689E
:1041C0000843784908606068022807D175481838A4
:1041D0000068C0F34040F8B9012063E76068032835
:1041E00007D1704818380068C0F34060A0B90120BA
:1041F00058E76068012807D16A4818380068C0F39A
:10420000002048B901204DE7664818380068C0F31F
:10421000800008B9012045E762480838006820F0AE
:104220000700616808435F4908390860FEF728FD08
:10423000064608E0FEF724FD801B41F288318842E3
:1042400001D903202EE757480838006800F03800ED
:104250006168B0EBC10FEDD1207800F002000228B8
:104260000ED15049E068096801F00F01884207D279
:104270004C48006820F00F00E16808434949086095
:104280004748006800F00F00A8420ED94448006873
:1042900020F00F002843424908600846006800F0FB
:1042A0000F00A84201D00120FCE6207800F00400B5
:1042B00004280ED13B492069096801F07001884249
:1042C00007D23848006820F070002169084335495A
:1042D0000860207800F00800082811D13149091D34
:1042E0006069096801F07001884209D22D48001DFB
:1042F000006820F07000616908432A49091D0860C0
:10430000207800F01000102811D12649091DA0695D
:10431000096801F4E061884209D22248001D006862
:1043200020F4E060A16908431E49091D0860207857
:1043300000F02000202811D11A490831E0690968ED
:1043400001F07001884209D216480830006820F058
:104350007000E169084313490831086000F076F8FD
:1043600010490968C1F303210F4A515C01F01F0194
:1043700020FA01F70B48006800F00F001146085CB6
:1043800000F01F0027FA00F008490860084807609D
:1043900008480068FEF7B6FC8046404682E600000A
:1043A0000020005218440258807E0008200000249B
:1043B0001C0000241400002410B500F047F80D493B
:1043C0000968C1F303210C4A515C01F01F0120FA76
:1043D00001F40848006800F00F001146085C00F086
:1043E0001F0024FA00F005490860054804600846EB
:1043F000006810BD18440258807E00082000002488
:104400001C00002400B5FFF7D7FF05490968C1F378
:104410000211044A515C01F01F01C84000BD0000B8
:104420001C440258807E000800B5FFF7C5FF05490F
:104430000968C1F30221044A515C01F01F01C84020
:1044400000BD00001C440258807E0008F0B5824E7A
:10445000366806F0380636B1082E15D0102E15D065
:10446000182E7DD114E07C4E103E3668C6F34016FF
:1044700046B1794E103E3668C6F3C107774E26FA2C
:1044800007F000E07548E5E07548E3E07548E1E0D5
:10449000714E1836366806F003046F4E18363668CB
:1044A000C6F305116C4E1C36366806F001056A4EDF
:1044B00024363668C6F3CC0616FB05F601EE106A04
:1044C000B8EE410A002971D024B1012C50D0022C41
:1044D0006DD16DE0604E103E3668C6F340163EB3B7
:1044E0005D4E103E3668C6F3C1075C4E26FA07F3F0
:1044F00001EE103AF8EE411A01EE101AB8EE411A28
:1045000081EE812A9FED581AC0EE011A524E2036D4
:104510003668C6F3080601EE106AB8EE411A31EEAD
:10452000811AF7EE001A31EE211A62EE010A1EE03E
:1045300001EE101AB8EE411ADFED4C1A81EE812A15
:104540009FED491AC0EE011A434E20363668C6F375
:10455000080601EE106AB8EE411A31EE811A00E049
:1045600076E0F7EE001A31EE211A62EE010A5BE006
:1045700001EE101AB8EE411A9FED3D2AC2EE011A63
:104580009FED391A80EE012A334E20363668C6F385
:10459000080601EE106AB8EE411A32EE011AB7EEC3
:1045A000002A31EE021A61EE810A3DE04EE01DE084
:1045B00001EE101AB8EE411ADFED2E1A81EE812AB3
:1045C0009FED291AC0EE011A234E20363668C6F335
:1045D000080601EE106AB8EE411A31EE811AF7EEC4
:1045E000001A31EE211A62EE010A1DE001EE101AE6
:1045F000B8EE411A9FED1E2AC2EE011A9FED1A1A5B
:1046000080EE012A144E20363668C6F3080601EE05
:10461000106AB8EE411A32EE011AB7EE002A31EEF6
:10462000021A61EE810A00BF00BF0B4E20363668C9
:10463000C6F34626721C01EE102AB8EE411AC0EEEF
:10464000811ABCEEE11A11EE100A00E0002001E030
:10465000034800BF00BFF0BD104402580090D003D3
:1046600000093D0040787D01000000460024744CA4
:104670000024744A20BCBE4B2DE9F047044614B90F
:104680000120BDE8F087207800F00100002870D0FC
:10469000FA48006800F03808F8481830D0F8009060
:1046A000B8F1100F06D0B8F1180F0FD109F00300C0
:1046B00002280BD1F14810380068C0F340400028B0
:1046C0006AD06068002867D10120DAE700BF60681F
:1046D000B0F5803F08D1E9481038006840F48030D8
:1046E000E649103908602EE0606868B9E348103880
:1046F000006820F48030E1491039086008460068FD
:1047000020F4802008601EE06068B0F5A02F0DD175
:10471000DA481038006840F48020D8491039086021
:104720000846006840F4803008600CE0D348103838
:10473000006820F48030D1491039086008460068CC
:1047400020F48020086000BF606898B1FEF798FAF6
:10475000054606E0FEF794FA401B642801D90320C1
:104760008FE7C64810380068C0F340400028F1D0F9
:1047700012E012E0FEF784FA054606E0FEF780FA42
:10478000401B642801D903207BE7BC48103800682F
:10479000C0F340400028F1D100BF207800F00200B3
:1047A000022874D1B548006800F03808B3481830C2
:1047B000D0F80090B8F1000F05D0B8F1180F56D11D
:1047C00009F00300D0BBAD4810380068C0F380008A
:1047D00018B1E06808B9012053E7A848103800680C
:1047E00020F01900E1680843A44910390860FEF779
:1047F00047FA054606E0FEF743FA401B022801D9B6
:1048000003203EE79D4810380068C0F38000002870
:10481000F1D000BFFEF72EFA41F2030188421AD808
:10482000206940280BD195480C38006820F47C3072
:1048300040F4003091490C39086017E017E08F48C8
:104840000C38006820F47C30216940EA01308B4943
:104850000C3908600AE089480C38006820F0FE40F6
:10486000217C40EA016085490C39086066E0E06817
:1048700088B382481038006820F01900E1680843C6
:104880007E4910390860FEF7FBF9054607E056E05F
:10489000FEF7F6F9401B022801D90320F1E677481C
:1048A00010380068C0F380000028F1D000BFFEF788
:1048B000E1F941F2030188421AD8206940280BD15E
:1048C0006E480C38006820F47C3040F400306B49AE
:1048D0000C39086017E017E068480C38006820F4CD
:1048E0007C30216940EA013064490C3908600AE0F3
:1048F00062480C38006820F0FE40217C40EA0160EC
:104900005E490C39086019E05C481038006820F0F6
:1049100001005A4910390860FEF7B2F9054606E071
:10492000FEF7AEF9401B022801D90320A9E653483F
:1049300010380068C0F380000028F1D100BF207853
:1049400000F0100010287CD14C48006800F03808B6
:104950004A481830D0F80090B8F1080F06D0B8F1E6
:10496000180F3DD109F00300012839D14348103810
:104970000068C0F3002020B1E069802801D0012048
:104980007FE600BFFEF776F941F2030188421AD8AC
:10499000206A20280AD139480C38006820F0F840F5
:1049A00040F0804035490C39086018E033480C3835
:1049B000006820F0F84094F8201040EA81602F4908
:1049C0000C3908600BE02D48001F006820F07C5077
:1049D00094F8201040EA01602849091F086066E049
:1049E000E06978B325481038006840F0800023491A
:1049F00010390860FEF744F9054606E0FEF740F975
:104A0000401B022801D903203BE61C4810380068EF
:104A1000C0F300200028F1D000BFFEF72BF941F2CF
:104A2000030188421CD8206A20280CD113480C3876
:104A3000006820F0F84040F0804010490C390860D0
:104A40001AE035E01CE00D480C38006820F0F84012
:104A500094F8201040EA816008490C3908600BE0A6
:104A60000648001F006820F07C5094F8201040EAAF
:104A700001600249091F086019E000001044025853
:104A8000FA48006820F08000F8490860FEF7F8F85E
:104A9000054606E0FEF7F4F8401B022801D9032082
:104AA000EFE5F2480068C0F300200028F2D100BF13
:104AB000207800F00800082836D16069D0B1EB48B2
:104AC0007430006840F00100E84974310860FEF776
:104AD000D7F8054606E0FEF7D3F8401B022801D9B7
:104AE0000320CEE5E14874300068C0F340000028A0
:104AF000F1D019E0DD487430006820F00100DB4996
:104B000074310860FEF7BCF8054606E0FEF7B8F819
:104B1000401B022801D90320B3E5D4487430006853
:104B2000C0F340000028F1D1207800F020002028B8
:104B300030D1A069B8B1CD48006840F48050CB496D
:104B40000860FEF79DF8054606E0FEF799F8401B61
:104B5000022801D9032094E5C4480068C0F340301E
:104B60000028F2D016E0C148006820F48050BF4908
:104B70000860FEF785F8054606E0FEF781F8401B61
:104B8000022801D903207CE5B8480068C0F3403012
:104B90000028F2D1207800F0040004287DD1B44828
:104BA000006840F48070B2490860FEF769F8054675
:104BB00006E0FEF765F8401B642801D9032060E594
:104BC000AB48006800F480700028F2D000BFA068F5
:104BD000012808D1A5487030006840F00100A349C1
:104BE000703108602DE0A06868B9A0487030006896
:104BF00020F001009D49703108600846006820F0EF
:104C0000040008601DE0A06805280DD197487030A9
:104C1000006840F00400954970310860084600685B
:104C200040F0010008600CE090487030006820F00F
:104C300001008E49703108600846006820F00400C9
:104C4000086000BFA068A0B1FEF71AF8054608E0AA
:104C5000FEF716F8401B41F28831884201D9032043
:104C60000FE5824870300068C0F340000028EFD0A4
:104C700013E0FEF705F8054608E0FEF701F8401BD3
:104C800041F28831884201D90320FAE47748703034
:104C90000068C0F340000028EFD1606A00287DD092
:104CA00072481030006800F03800182877D0606A29
:104CB000022875D16D48006820F080706B4908604B
:104CC000FDF7DEFF054606E0FDF7DAFF401B022890
:104CD00001D90320D5E465480068C0F3406000288E
:104CE000F2D100BFD4E90A1041EA00105F4928312F
:104CF000096840F2F332914308435C492831086067
:104D0000208E401EC0F30800616B491E4FF47E42A6
:104D100002EA41210843218F491ED20102EA0141E2
:104D200008433C21095D491E120202EA0161084361
:104D30004E493031086000BF081F006820F00100B4
:104D4000091F08604948343000684FF6F8718843FD
:104D5000A16C40EAC10045493431086043482C3019
:104D6000006820F00C00216C084340492C31086099
:104D70000846006820F00200616C08433B492C3172
:104D800008600846006840F4803008600846006803
:104D900040F4003008600846006802E093E038E024
:104DA0001FE040F4802008600846006840F00100E1
:104DB00008602E48006840F080702C490860FDF7BC
:104DC0005FFF054606E0FDF75BFF401B022801D9A7
:104DD000032056E425480068C0F340600028F2D064
:104DE00071E02248006820F0807020490860FDF7DB
:104DF00047FF054606E0FDF743FF401B022801D9A7
:104E000003203EE419480068C0F340600028F2D156
:104E100059E0164828300768144830300668606A40
:104E2000012821D007F00301A06A81421CD1C7F3F9
:104E30000511E06A884217D1C6F30801206B401EB5
:104E4000814211D1606B401EC6F3462188420BD1CE
:104E5000A06B401EC6F30641884205D1E06B401EA0
:104E6000C6F30661884205D001200AE400440258D6
:104E70000048025815480068C0F3CC07A06CB8423F
:104E800021D012480838006820F001000F49083985
:104E90000860FDF7F5FE054600BFFDF7F1FE401B7B
:104EA000FBD00A4800684FF6F8718843A16C40EACD
:104EB000C1000649086005480838006840F0010054
:104EC00002490839086000204AE4000034440258CE
:104ED00070B504462546681EB0F1807F01D30120DD
:104EE0000FE0681E4FF0E02148610F214FF0FF30C6
:104EF00001F0F2FE00204FF0E021886107200861F8
:104F0000002070BD014600BF91F88400012801D146
:104F100002207047012081F8840000BF2420C1F8DE
:104F20008800086802680868006820F001000B68C3
:104F3000186022F0005200204866086802602020B5
:104F4000C1F8880000BF002081F8840000BF00BFC6
:104F5000DFE77047704770B504460D4600BF94F810
:104F60008400012801D1022070BD012084F8840052
:104F700000BF2420C4F88800206806682068006804
:104F800020F00100216808602068806820F06060DF
:104F9000284321688860204601F09CF8206806605C
:104FA0002020C4F8880000BF002084F8840000BFDF
:104FB00000BFD9E770B504460D4600BF94F88400E1
:104FC000012801D1022070BD012084F8840000BFB7
:104FD0002420C4F88800206806682068006820F053
:104FE0000100216808602068806820F06040284344
:104FF00021688860204601F06DF820680660202056
:10500000C4F8880000BF002084F8840000BF00BFFF
:10501000D9E77047704770472DE9F047044620688C
:10502000C569206806682068876840F60F0005EAB1
:105030000009B9F1000F0FD105F0200060B106F0B2
:10504000200010B907F0805030B1606F10B12046D9
:10505000616F8847BDE8F087B9F1000F7ED0F8484E
:10506000384018B9F74830400028F7D005F0010063
:1050700058B106F4807040B1012021680862D4F86C
:10508000900040F00100C4F8900005F0020058B113
:1050900007F0010040B1022021680862D4F89000B6
:1050A00040F00400C4F8900005F0040058B107F087
:1050B000010040B1042021680862D4F8900040F05B
:1050C0000200C4F8900005F0080070B106F020005E
:1050D00010B9DB48384040B1082021680862D4F894
:1050E000900040F00800C4F8900005F4006060B142
:1050F00006F0806048B14FF4006021680862D4F87F
:10510000900040F02000C4F89000D4F890000028EF
:1051100052D005F0200050B106F0200010B907F081
:10512000805020B1606F10B12046616F8847D4F87D
:1051300090A02068806800F04000402802D00AF06B
:10514000280070B3204601F0B7F92068806800F0AD
:105150004000402826D100BF00BF00E02DE02168BC
:10516000083151E8001F21F040002168083141E872
:105170000002002AF1D100BFD4F8800068B1B24823
:10518000D4F880100865D4F88000FCF7ADF898B129
:10519000D4F88000016D88470EE02046FFF73BFF02
:1051A0000AE003E02046FFF736FF05E02046FFF760
:1051B00032FF0020C4F890004CE7E06E01287DD15A
:1051C00005F01000002879D006F010000028FAD071
:1051D0001020216808622068806800F040004028A4
:1051E0006DD1D4F880000068984988426BD0D4F81B
:1051F0008000006895491831884264D0D4F8800056
:1052000000689249303188425DD0D4F8800000684F
:105210008E494831884256D0D4F8800000688B49C6
:10522000603188424FD0D4F88000006887497831D7
:10523000884248D0D4F88000006884499031884280
:1052400041D0D4F8800000688049A83188423AD023
:10525000D4F8800000687E49884234D0D4F88000B9
:1052600000687B49183188422DD0D4F8800000684E
:1052700077493031884226D0D4F8800000687449DC
:10528000483188421FD0D4F88000006870496031EE
:10529000884218D0D4F8800000686D49783188427F
:1052A00011D0D4F8800000686949903188420AD052
:1052B000D4F8800000686649A83102E0CAE07BE0CB
:1052C00001E0884204D1D4F880000068406803E01F
:1052D000D4F88000006840681FFA80F8B8F1000F29
:1052E00058D0B4F85C00404554DDA4F85E80D4F892
:1052F0008000C069B0F5807F40D000BF00BF21684A
:1053000051E8001F21F48070226842E80001002962
:10531000F5D100BF00BF00BF2168083151E8001F70
:1053200021F001002168083141E80002002AF3D190
:1053300000BF00BF00BF2168083151E8001F21F005
:1053400040002168083141E80002002AF3D100BF83
:105350002020C4F88C000020E06600BF00BF216858
:1053600051E8001F21F01000226842E800010029E6
:10537000F5D100BFD4F88000FBF748FD022020677C
:10538000B4F85C00B4F85E20801A81B22046FFF7C2
:10539000E0FD10E0B4F85C0040450CD1D4F880008A
:1053A000C069B0F5807F06D102202067B4F85C1098
:1053B0002046FFF7CEFD4DE634F85C0F6188401AB9
:1053C0001FFA80F860885C3CC8B3B8F1000F36D093
:1053D00000BF00BF216851E8001F21F490702268CF
:1053E00042E800010029F5D100BF00BF00BF2168DD
:1053F000083151E8001F124AD24301EA0200216835
:10540000083141E80002002AF1D100BF2020C4F891
:105410008C000020E066606700BF00BF216851E893
:10542000001F21F01000226842E800010029F5D198
:1054300000BF0220206741462046FFF78AFD09E6AB
:1054400001000010200100040F630008100002405A
:105450001004024005F4801050B107F4800038B108
:105460004FF48010216808622046FFF7D3FDF1E574
:1054700005F0800058B106F0800010B907F4000074
:1054800028B1A06F10B12046A16F8847E2E505F072
:10549000400030B106F0400018B1204601F042F85B
:1054A000D8E505F4000030B106F0804018B1204680
:1054B000FFF7AFFDCEE505F0807030B106F000409B
:1054C00018B12046FFF746FDC4E500BFC2E510B5A0
:1054D00004460CB9012010BDA06900B100E000BF76
:1054E000D4F8880028B9002084F88400204600F011
:1054F0002BF82420C4F888002068006820F0010000
:1055000021680860A06A10B1204600F00FFE204616
:1055100001F040F8012800D1DDE72068406820F460
:105520009040216848602068806820F02A00216847
:1055300088602068006840F001002168086020460B
:1055400000F070FEC7E7000010B5B8B004461421A3
:1055500032A8FAF7FBFEC02102A8FAF7F7FE8F493E
:10556000206888425CD102210020CDE90210209001
:1055700002A8FDF7DDFE08B1FBF733FC00BF884849
:10558000006840F08040864908600846006800F0E6
:105590008040019000BF00BF00BF8148083800680C
:1055A00040F010007E49083908600846006800F0A5
:1055B0001000019000BF00BF4FF4C0703290022075
:1055C00033900020349035900720369032A97548EA
:1055D000FDF752FA7448754908604F204860002171
:1055E00072488160C1604FF48061016100214161B6
:1055F0008161C16101624162FCF7BEFD08B1FBF748
:10560000F0FB00BF6948C4F88000846300BF00223B
:1056100011465220FDF7C8FB5220FDF7B1FBBAE05E
:1056200063492068884236D102210020CDE902106A
:10563000209002A8FDF77CFE08B1FBF7D2FB00BF6B
:105640005748006840F00040554908600846006827
:1056500000F00040019000BF00BF00BF5048083874
:10566000006840F010004E4908390860084600689C
:1056700000F01000019000BF00BF03203290022014
:1056800033900020349035900820369032A9454858
:10569000FDF7F2F97FE04749206888427BD101217C
:1056A0000020CDE90210219002A8FDF741FE08B1CB
:1056B000FBF797FB00BF3A480830006840F0100045
:1056C0003749083108600846006800F01000019072
:1056D00000BF00BF00BF32480838006840F0020039
:1056E0002F49083908600846006800F00200019060
:1056F00000BF00BFC02032900220339000203490C1
:1057000035900720369032A92B48FDF7B5F9264889
:1057100030382A49086029204860002127488160E4
:10572000C1604FF480610161002141618161C1610B
:1057300001624162FCF720FD08B1FBF752FB00BF9C
:105740001E48C4F88000846300BF174818381C49FD
:1057500008602A2048604021194881600021C1600A
:105760004FF480610161002141618161C161016289
:105770004162FCF701FD08B1FBF733FB00BF1048A5
:10578000E067846300BF002203212520FDF70CFBA6
:105790002520FDF7F5FA38B010BD00000078004074
:1057A000E844025800100258400002400002002461
:1057B000007C0040001001400004025878020024E0
:1057C000F002002470B504460D461646D4F88C004D
:1057D000202821D105B10EB9012070BD0020E0665E
:1057E0000E492068884211D02068406800F400000B
:1057F00060B100BF00BF216851E8001F41F0806028
:10580000226842E800010029F5D100BF324629464E
:10581000204601F085F9E0E70220DEE7000C0058A1
:10582000074A0168914202D10121064A1170064AD5
:105830000168914202D10121044A117070470000B1
:10584000001001402B0000240078004038000024A4
:1058500070472DE9F84F04460E4617469946D4F88E
:105860008800202854D106B117B90120BDE8F88F6F
:1058700000205434E06321206063FDF701FA824682
:1058800027806780543CA068B0F5805F04D1206910
:1058900010B90025B04602E035464FF0000820E080
:1058A0005346002280212046CDF8009001F09CF95B
:1058B00020B12020C4F888000320D7E745B9B8F804
:1058C0000000C0F308002168886208F1020803E0C4
:1058D0002878216888626D1CB4F85600401EA4F830
:1058E0005600B4F856000028DAD153460022402171
:1058F0002046CDF8009001F077F920B12020C4F8BF
:1059000088000320B2E72020C4F888000020ADE71B
:105910000220ABE770B504460E461546D4F8880061
:1059200020283FD106B10DB9012070BD44F8506F59
:10593000A580E580002020642120A063E06A503C1F
:10594000E0B11948E16FC8631848E16F086418486E
:10595000E16FC8640020E16F0865236803F1280245
:105960002B46216DE06FFCF797FE38B11020C4F88C
:1059700090002020C4F888000120D6E7402021684C
:10598000086200BF00BF2168083151E8001F41F0E4
:1059900080002168083141E80002002AF3D100BFED
:1059A0000020C2E70220C0E755640008A96400088F
:1059B0002363000810B5044604492068884204D1D6
:1059C000072203490348FFF7FDFE10BD0010014008
:1059D000240000246C010024704700BFFEE7000093
:1059E00008B500BF1248006840F001001049086087
:1059F0000846006800F00100009000BF00BF0022D0
:105A000011460B20FDF7D0F90B20FDF7B9F9002264
:105A100011460C20FDF7C8F90C20FDF7B1F9002262
:105A200011460D20FDF7C0F90D20FDF7A9F908BDBD
:105A3000D844025808B500BF1A48006840F08000FA
:105A4000184908600846006800F08000009000BF18
:105A500000BF00BF0846006840F01000086008461C
:105A6000006800F01000009000BF00BF00BF0846B3
:105A7000006840F0010008600846006800F001007E
:105A8000009000BF00BF00BF0846006840F0020061
:105A900008600846006800F00200009000BF00BFE8
:105AA00008BD0000E044025810B5184818490860C5
:105AB0004FF4E1304860002115488160C160016108
:105AC0000C21416100218161C161016241620020BC
:105AD0000F4988620846FFF7FAFC08B1FBF781F925
